:040000000AEF06F00D
:100800000020202020202020202020202020202008
:1008100020003635343332313039383736353433D9
:1008200032310031323334353637383930313233C2
:05083000343536000024
:100836000E6EF00E836E000E096E0A0E086EADEC9B
:1008460005F00E508314F00B836E000E096E0A0E2F
:10085600086EADEC05F0839483928380000E096EDA
:100866000A0E086EADEC05F08390000E096E0A0EB6
:10087600086EADEC05F0F00E836E0E38F00B8314A7
:10088600F00B836E839483928380000E096E0A0EAA
:10089600086EADEC05F08390000E096E0A0E086E28
:1008A600ADEC05F00E04D8A45BEF04F05DEF04F0A8
:1008B60063EF04F0000E096E640E086EADEC05F0F1
:1008C6000E50D8A469EF04F06BEF04F071EF04F05A
:1008D600000E096E640E086EADEC05F01200126E85
:1008E600020E1218D8A47AEF04F07CEF04F082EF1F
:1008F60004F00F50C00F1BEC04F0AFEF04F012042D
:10090600D8A488EF04F08AEF04F090EF04F00F50BB
:10091600800F1BEC04F0AFEF04F0800E1BEC04F02C
:10092600AFEF04F0000E096EC80E086EADEC05F0D0
:1009360010C0F6FF11C0F7FFF86A070EF76403D080
:100946000800F55005D0F6CFE9FFF7CFEAFFEF50E4
:1009560009EC05F0104A112A10C0F6FF11C0F7FF86
:10096600F86A070EF76403D00800F55005D0F6CFF5
:10097600E9FFF7CFEAFFEF500009D8A4C5EF04F06E
:10098600C7EF04F095EF04F01200DCEC05F093924B
:10099600000E0F6E010E106E1050D8A4080E116EC8
:1009A600020E72EC04F0000E0F6E230E106E105045
:1009B600D8A4080E116E000E72EC04F08182270E88
:1009C600096E100E086EADEC05F08192000E0F6EEA
:1009D600010E106E1050D8A4080E116E000E72ECA7
:1009E60004F0000E0F6E120E106E1050D8A4080EF2
:1009F600116E020E72EC04F0270E096E100E086ED0
:100A0600ADEC05F0CBEF04F000EF00F00E6EF00E4B
:100A1600836E000E096E280E086EADEC05F00E50C2
:100A26008314F00B836E000E096E280E086EADEC73
:100A360005F0839483828380000E096E280E086E6B
:100A4600ADEC05F08390000E096E280E086EADEC35
:100A560005F0F00E836E0E38F00B8314F00B836EE8
:100A6600839483828380000E096E280E086EADEC97
:100A760005F08390000E096E280E086EADEC05F0A9
:100A86001200000E066E000E056E03500410D8B458
:100A96004FEF05F051EF05F079EF05F0010E076E07
:100AA60059EF05F0D89003360436072A04AE5EEFF8
:100AB60005F060EF05F055EF05F0D89005360636DF
:100AC6000350015C04500258D8A06CEF05F06EEF9D
:100AD60005F073EF05F00350015E0450025A0580DD
:100AE600D89004320332072E60EF05F005C001F0FE
:100AF60006C002F01200000E0B6E000E0A6E97EF93
:100B060005F0000E0D6E000E0C6E0C4A0D2AE00E5E
:100B16000C5C2E0E0D58D8A093EF05F095EF05F05E
:100B260088EF05F00A4A0B2A08C001F009C002F056
:100B3600000E046E0A0E036E44EC05F001500A5CCA
:100B460002500B58D8A0AAEF05F0ACEF05F084EFE1
:100B560005F01200000E0B6E000E0A6EC6EF05F0D1
:100B6600000E0D6E000E0C6E0C4A0D2A0D5009E19A
:100B76000C0E0C5CD8A0C2EF05F0C4EF05F0B7EF81
:100B860005F00A4A0B2A08C001F009C002F0000E5F
:100B9600046E0A0E036E44EC05F001500A5C025026
:100BA6000B58D8A0D9EF05F0DBEF05F0B3EF05F051
:100BB6001200000E096E640E086E7EEC05F0956A52
:100BC600800E836E300E1BEC04F0000E096E320EA2
:100BD600086E7EEC05F0300E1BEC04F0010E096E7B
:100BE6002C0E086EADEC05F0300E1BEC04F0320E48
:100BF6001BEC04F02C0E1BEC04F0060E1BEC04F0B0
:100C06000F0E1BEC04F0010E1BEC04F01200000E9C
:080C1600F86E0001C8EF04F0C4
:00000001FF
